{"abi":[{"type":"constructor","inputs":[],"stateMutability":"nonpayable"},{"type":"function","name":"CONSTANT_VALUE","inputs":[],"outputs":[{"name":"","type":"uint256","internalType":"uint256"}],"stateMutability":"view"},{"type":"function","name":"IMMUTABLE_VALUE","inputs":[],"outputs":[{"name":"","type":"uint256","internalType":"uint256"}],"stateMutability":"view"},{"type":"function","name":"addNumber","inputs":[{"name":"_number","type":"uint256","internalType":"uint256"}],"outputs":[],"stateMutability":"nonpayable"},{"type":"function","name":"addStudent","inputs":[{"name":"_name","type":"string","internalType":"string"},{"name":"_score","type":"uint256","internalType":"uint256"}],"outputs":[],"stateMutability":"nonpayable"},{"type":"function","name":"addressValue","inputs":[],"outputs":[{"name":"","type":"address","internalType":"address"}],"stateMutability":"view"},{"type":"function","name":"boolValue","inputs":[],"outputs":[{"name":"","type":"bool","internalType":"bool"}],"stateMutability":"view"},{"type":"function","name":"checkNumber","inputs":[],"outputs":[{"name":"","type":"string","internalType":"string"}],"stateMutability":"view"},{"type":"function","name":"divide","inputs":[{"name":"a","type":"uint256","internalType":"uint256"},{"name":"b","type":"uint256","internalType":"uint256"}],"outputs":[{"name":"","type":"uint256","internalType":"uint256"}],"stateMutability":"pure"},{"type":"function","name":"getNumberAndBool","inputs":[],"outputs":[{"name":"","type":"uint256","internalType":"uint256"},{"name":"","type":"bool","internalType":"bool"}],"stateMutability":"view"},{"type":"function","name":"getStudent","inputs":[{"name":"_index","type":"uint256","internalType":"uint256"}],"outputs":[{"name":"name","type":"string","internalType":"string"},{"name":"score","type":"uint256","internalType":"uint256"}],"stateMutability":"view"},{"type":"function","name":"getStudentCount","inputs":[],"outputs":[{"name":"","type":"uint256","internalType":"uint256"}],"stateMutability":"view"},{"type":"function","name":"initializedValue","inputs":[],"outputs":[{"name":"","type":"uint256","internalType":"uint256"}],"stateMutability":"view"},{"type":"function","name":"interfaceExample","inputs":[],"outputs":[{"name":"","type":"string","internalType":"string"}],"stateMutability":"pure"},{"type":"function","name":"lastAddedStudentInfo","inputs":[],"outputs":[{"name":"","type":"string","internalType":"string"}],"stateMutability":"view"},{"type":"function","name":"numberValue","inputs":[],"outputs":[{"name":"","type":"uint256","internalType":"uint256"}],"stateMutability":"view"},{"type":"function","name":"numbers","inputs":[{"name":"","type":"uint256","internalType":"uint256"}],"outputs":[{"name":"","type":"uint256","internalType":"uint256"}],"stateMutability":"view"},{"type":"function","name":"owner","inputs":[],"outputs":[{"name":"","type":"address","internalType":"address"}],"stateMutability":"view"},{"type":"function","name":"removeStudent","inputs":[{"name":"_index","type":"uint256","internalType":"uint256"}],"outputs":[],"stateMutability":"nonpayable"},{"type":"function","name":"setAddress","inputs":[{"name":"_address","type":"address","internalType":"address"}],"outputs":[],"stateMutability":"nonpayable"},{"type":"function","name":"setBool","inputs":[{"name":"_bool","type":"bool","internalType":"bool"}],"outputs":[],"stateMutability":"nonpayable"},{"type":"function","name":"setNumber","inputs":[{"name":"_number","type":"uint256","internalType":"uint256"}],"outputs":[],"stateMutability":"nonpayable"},{"type":"function","name":"studentCount","inputs":[],"outputs":[{"name":"","type":"uint256","internalType":"uint256"}],"stateMutability":"view"},{"type":"function","name":"studentScores","inputs":[{"name":"","type":"address","internalType":"address"}],"outputs":[{"name":"","type":"uint256","internalType":"uint256"}],"stateMutability":"view"},{"type":"function","name":"students","inputs":[{"name":"","type":"uint256","internalType":"uint256"}],"outputs":[{"name":"name","type":"string","internalType":"string"},{"name":"score","type":"uint256","internalType":"uint256"}],"stateMutability":"view"},{"type":"function","name":"updateStudent","inputs":[{"name":"_index","type":"uint256","internalType":"uint256"},{"name":"_name","type":"string","internalType":"string"},{"name":"_score","type":"uint256","internalType":"uint256"}],"outputs":[],"stateMutability":"nonpayable"},{"type":"event","name":"StudentAdded","inputs":[{"name":"index","type":"uint256","indexed":true,"internalType":"uint256"},{"name":"name","type":"string","indexed":false,"internalType":"string"},{"name":"score","type":"uint256","indexed":false,"internalType":"uint256"}],"anonymous":false},{"type":"event","name":"StudentRemoved","inputs":[{"name":"index","type":"uint256","indexed":true,"internalType":"uint256"}],"anonymous":false},{"type":"event","name":"StudentUpdated","inputs":[{"name":"index","type":"uint256","indexed":true,"internalType":"uint256"},{"name":"name","type":"string","indexed":false,"internalType":"string"},{"name":"score","type":"uint256","indexed":false,"internalType":"uint256"}],"anonymous":false},{"type":"event","name":"ValueSet","inputs":[{"name":"setter","type":"address","indexed":true,"internalType":"address"},{"name":"value","type":"uint256","indexed":false,"internalType":"uint256"}],"anonymous":false}],"bytecode":{"object":"0x60a0604052606460085534801561001557600080fd5b50600980546001600160a01b03191633179055607b608052608051611117610048600039600061029401526111176000f3fe608060405234801561001057600080fd5b50600436106101735760003560e01c80638d164303116100de578063e30081a011610097578063f622e21011610071578063f622e21014610384578063f668443b146103a4578063f88e9fbf146103ad578063fce68023146103c057600080fd5b8063e30081a014610332578063e581f9ee14610368578063ec7505b11461037157600080fd5b80638d1643031461028f5780638da5cb5b146102b657806393af578d146102e15780639c46dcdf146102fe578063d39fa23314610307578063e1d16b831461031a57600080fd5b806341e0c4071161013057806341e0c407146102295780634758b9cd1461023b5780635aad325214610243578063642f91631461024b5780636af838451461025e578063724e0fc61461027157600080fd5b806306ead22e146101785780630e5eeef7146101a25780631e26fd33146101b75780632b12033f146101d85780632dd2b5351461020e5780633fb5c1cb14610216575b600080fd5b61018b610186366004610cfe565b610403565b604051610199929190610d6f565b60405180910390f35b6101b56101b0366004610e34565b6104bf565b005b6101b56101c5366004610e79565b6001805460ff1916911515919091179055565b604080518082019091526011815270496e74657266616365206578616d706c6560781b60208201525b6040516101999190610e9b565b6102016105c7565b6101b5610224366004610cfe565b610655565b6006545b604051908152602001610199565b610201610692565b61022d602a81565b61018b610259366004610cfe565b610723565b6101b561026c366004610cfe565b61082f565b60005460015460ff1660408051928352901515602083015201610199565b61022d7f000000000000000000000000000000000000000000000000000000000000000081565b6009546102c9906001600160a01b031681565b6040516001600160a01b039091168152602001610199565b6001546102ee9060ff1681565b6040519015158152602001610199565b61022d60005481565b61022d610315366004610cfe565b610932565b6001546102c99061010090046001600160a01b031681565b6101b5610340366004610eae565b600180546001600160a01b0390921661010002610100600160a81b0319909216919091179055565b61022d60025481565b6101b561037f366004610ed7565b610953565b61022d610392366004610eae565b60076020526000908152604090205481565b61022d60085481565b61022d6103bb366004610f27565b610a26565b6101b56103ce366004610cfe565b600580546001810182556000919091527f036b6384b5eca791c62761152d0c79bb0604c104a5fb6f4eb0703f3154bb3db00155565b6006818154811061041357600080fd5b906000526020600020906002020160009150905080600001805461043690610f49565b80601f016020809104026020016040519081016040528092919081815260200182805461046290610f49565b80156104af5780601f10610484576101008083540402835291602001916104af565b820191906000526020600020905b81548152906001019060200180831161049257829003601f168201915b5050505050908060010154905082565b600680546040805180820190915284815260208082018590526001830184556000939093528051805192939192600285027ff652222313e28459528d920b65115c16c04f3efc82aaedc97be59f3f377c0d3f0192610521928492910190610bad565b5060209182015160019091015533600090815260079091526040908190208390555181907ffafb7311fc57ca8a55073f63725e888b4250c799d77ae873970d65ac08c5917a906105749086908690610d6f565b60405180910390a26006546002558261058c83610a81565b60405160200161059d929190610f83565b604051602081830303815290604052600390805190602001906105c1929190610bad565b50505050565b600380546105d490610f49565b80601f016020809104026020016040519081016040528092919081815260200182805461060090610f49565b801561064d5780601f106106225761010080835404028352916020019161064d565b820191906000526020600020905b81548152906001019060200180831161063057829003601f168201915b505050505081565b600081905560405181815233907ff3f57717dff9f5f10af315efdbfadc60c42152c11fc0c3c413bbfbdc661f143c9060200160405180910390a250565b6060606460005411156106ca575060408051808201909152601081526f047726561746572207468616e203130360841b602082015290565b6000546064036106fb575060408051808201909152600c81526b0457175616c20746f203130360a41b602082015290565b5060408051808201909152600d81526c04c657373207468616e2031303609c1b602082015290565b60065460609060009083106107535760405162461bcd60e51b815260040161074a90610fd9565b60405180910390fd5b60006006848154811061076857610768611009565b906000526020600020906002020160405180604001604052908160008201805461079190610f49565b80601f01602080910402602001604051908101604052809291908181526020018280546107bd90610f49565b801561080a5780601f106107df5761010080835404028352916020019161080a565b820191906000526020600020905b8154815290600101906020018083116107ed57829003601f168201915b5050509183525050600191909101546020918201528151910151909590945092505050565b60065481106108505760405162461bcd60e51b815260040161074a90610fd9565b6006805461086090600190611035565b8154811061087057610870611009565b90600052602060002090600202016006828154811061089157610891611009565b906000526020600020906002020160008201816000019080546108b390610f49565b6108be929190610c31565b5060019182015491015560068054806108d9576108d961104c565b600082815260208120600019909201916002830201906108f98282610cac565b506000600191909101819055915560405182917f59341c48fd0b57ee9c153818be62372ef211cc499da6c2c6d5b8fe49721f36c591a250565b6005818154811061094257600080fd5b600091825260209091200154905081565b60065483106109745760405162461bcd60e51b815260040161074a90610fd9565b6040518060400160405280838152602001828152506006848154811061099c5761099c611009565b906000526020600020906002020160008201518160000190805190602001906109c6929190610bad565b5060209182015160019091015533600090815260079091526040908190208290555183907f4357c5c5b9644041ac4ee3cc6cb2955092b15b49004dd53d4ec2fc556826b8b990610a199085908590610d6f565b60405180910390a2505050565b600081600003610a705760405162461bcd60e51b815260206004820152601560248201527443616e6e6f7420646976696465206279207a65726f60581b604482015260640161074a565b610a7a8284611062565b9392505050565b606081600003610aa85750506040805180820190915260018152600360fc1b602082015290565b8160005b8115610ad25780610abc81611084565b9150610acb9050600a83611062565b9150610aac565b60008167ffffffffffffffff811115610aed57610aed610d91565b6040519080825280601f01601f191660200182016040528015610b17576020820181803683370190505b509050815b8515610ba457610b2d600182611035565b90506000610b3c600a88611062565b610b4790600a61109d565b610b519088611035565b610b5c9060306110bc565b905060008160f81b905080848481518110610b7957610b79611009565b60200101906001600160f81b031916908160001a905350610b9b600a89611062565b97505050610b1c565b50949350505050565b828054610bb990610f49565b90600052602060002090601f016020900481019282610bdb5760008555610c21565b82601f10610bf457805160ff1916838001178555610c21565b82800160010185558215610c21579182015b82811115610c21578251825591602001919060010190610c06565b50610c2d929150610ce9565b5090565b828054610c3d90610f49565b90600052602060002090601f016020900481019282610c5f5760008555610c21565b82601f10610c705780548555610c21565b82800160010185558215610c2157600052602060002091601f016020900482015b82811115610c21578254825591600101919060010190610c91565b508054610cb890610f49565b6000825580601f10610cc8575050565b601f016020900490600052602060002090810190610ce69190610ce9565b50565b5b80821115610c2d5760008155600101610cea565b600060208284031215610d1057600080fd5b5035919050565b60005b83811015610d32578181015183820152602001610d1a565b838111156105c15750506000910152565b60008151808452610d5b816020860160208601610d17565b601f01601f19169290920160200192915050565b604081526000610d826040830185610d43565b90508260208301529392505050565b634e487b7160e01b600052604160045260246000fd5b600082601f830112610db857600080fd5b813567ffffffffffffffff80821115610dd357610dd3610d91565b604051601f8301601f19908116603f01168101908282118183101715610dfb57610dfb610d91565b81604052838152866020858801011115610e1457600080fd5b836020870160208301376000602085830101528094505050505092915050565b60008060408385031215610e4757600080fd5b823567ffffffffffffffff811115610e5e57600080fd5b610e6a85828601610da7565b95602094909401359450505050565b600060208284031215610e8b57600080fd5b81358015158114610a7a57600080fd5b602081526000610a7a6020830184610d43565b600060208284031215610ec057600080fd5b81356001600160a01b0381168114610a7a57600080fd5b600080600060608486031215610eec57600080fd5b83359250602084013567ffffffffffffffff811115610f0a57600080fd5b610f1686828701610da7565b925050604084013590509250925092565b60008060408385031215610f3a57600080fd5b50508035926020909101359150565b600181811c90821680610f5d57607f821691505b602082108103610f7d57634e487b7160e01b600052602260045260246000fd5b50919050565b6502730b6b29d160d51b815260008351610fa4816006850160208801610d17565b680161029b1b7b9329d160bd1b6006918401918201528351610fcd81600f840160208801610d17565b01600f01949350505050565b60208082526016908201527514dd1d59195b9d08191bd95cc81b9bdd08195e1a5cdd60521b604082015260600190565b634e487b7160e01b600052603260045260246000fd5b634e487b7160e01b600052601160045260246000fd5b6000828210156110475761104761101f565b500390565b634e487b7160e01b600052603160045260246000fd5b60008261107f57634e487b7160e01b600052601260045260246000fd5b500490565b6000600182016110965761109661101f565b5060010190565b60008160001904831182151516156110b7576110b761101f565b500290565b600060ff821660ff84168060ff038211156110d9576110d961101f565b01939250505056fea2646970667358221220f983c0bb404f741420f93b0994b12c7c643df8c28c63bd49bc812a3a68d7a66d64736f6c634300080d0033","linkReferences":{}},"methodIdentifiers":{"CONSTANT_VALUE()":"5aad3252","IMMUTABLE_VALUE()":"8d164303","addNumber(uint256)":"fce68023","addStudent(string,uint256)":"0e5eeef7","addressValue()":"e1d16b83","boolValue()":"93af578d","checkNumber()":"4758b9cd","divide(uint256,uint256)":"f88e9fbf","getNumberAndBool()":"724e0fc6","getStudent(uint256)":"642f9163","getStudentCount()":"41e0c407","initializedValue()":"f668443b","interfaceExample()":"2b12033f","lastAddedStudentInfo()":"2dd2b535","numberValue()":"9c46dcdf","numbers(uint256)":"d39fa233","owner()":"8da5cb5b","removeStudent(uint256)":"6af83845","setAddress(address)":"e30081a0","setBool(bool)":"1e26fd33","setNumber(uint256)":"3fb5c1cb","studentCount()":"e581f9ee","studentScores(address)":"f622e210","students(uint256)":"06ead22e","updateStudent(uint256,string,uint256)":"ec7505b1"},"id":0}